:100000000C943D000C945A000C945A000C945A0025
:100010000C945A000C945A000C945A000C945A00F8
:100020000C945A000C945A000C945A000C945A00E8
:100030000C945A000C945A000C945A000C945A00D8
:100040000C945A000C945A000C945A000C945A00C8
:100050000C945A000C945A000C945A000C945A00B8
:100060000C945A000C945A00FC05F0050F061B0670
:100070008307ED06FF066407550811241FBECFEF66
:10008000D8E0DEBFCDBF13E0A0E0B1E0E6E7FAE1E3
:1000900002C005900D92AA3EB107D9F724E0AAEE5E
:1000A000B3E001C01D92A738B207E1F70E94AB058B
:1000B0000C94390D0C94000080FF04C09BB190613A
:1000C0009BB903C09BB19F7E9BB981FF04C09BB1CC
:1000D00090629BB903C09BB19F7D9BB982FF04C016
:1000E0009BB190649BB903C09BB19F7B9BB983FF7D
:1000F00004C08BB180688BB903C08BB18F778BB98B
:100100008BB188608BB987EC90E00197F1F700C064
:1001100000008BB1877F8BB90895CF93C82F8BB127
:100120008B7F8BB900008C2F82958F700E945C00B2
:100130008C2F8F700E945C008FE99FE00197F1F790
:1001400000C00000CF910895CF938AB184608AB92E
:100150008AB188608AB98BB1877F8BB98BB18B7F6D
:100160008BB98AB180618AB98AB180628AB98AB151
:1001700080648AB98AB180688AB92FEF89EF90E0EC
:10018000215080409040E1F700C00000C0E00AC06C
:1001900083E00E945C008FE19EE40197F1F700C0CC
:1001A0000000CF5FC330A0F383E30E948D0082E3A1
:1001B0000E948D0088E20E948D008CE00E948D00DC
:1001C00086E00E948D0081E00E948D008FED9EE20E
:1001D0000197F1F700C00000CF910895CF93C82F89
:1001E0008BB184608BB900008C2F82958F700E9438
:1001F0005C008C2F8F700E945C008FE99FE001975C
:10020000F1F700C00000CF910895CF93DF93EC0188
:1002100003C00E94EE00219688818111FACFDF9100
:10022000CF9108950F931F93CF93DF93CDB7DEB790
:100230002A970FB6F894DEBF0FBECDBF9F938F9362
:100240008AE291E09F938F938E010F5F1F4F1F9360
:100250000F930E94000AC8010E9405010F900F90A1
:100260000F900F900F900F902A960FB6F894DEBF64
:100270000FBECDBFDF91CF911F910F9108956230D6
:1002800059F018F4613031F00DC0633039F064304A
:1002900039F008C0815007C0815C05C08D5E03C085
:1002A0008D5A01C0815080680E948D00089581E0C0
:1002B0000E948D008FE39FE10197F1F700C00000DD
:1002C00008950E94570161E081E00E943F018DE2A4
:1002D00091E00E94050162E081E00E943F0182E41A
:1002E00091E00E94050163E081E00E943F0187E503
:1002F00091E00E94050164E081E00E943F0182E4F8
:1003000091E00E94050108950E94570161E081E09B
:100310000E943F018DE291E00E94050162E081E0D0
:100320000E943F0182E491E00E94050163E081E0C8
:100330000E943F018CE691E00E94050164E081E0AB
:100340000E943F0182E491E00E94050108950E940D
:10035000570161E081E00E943F018DE291E00E943F
:10036000050162E081E00E943F0182E491E00E9489
:10037000050163E081E00E943F0181E891E00E9475
:10038000050164E081E00E943F0182E491E00E9467
:10039000050108950E94570161E081E00E943F013C
:1003A00086E991E00E94050162E081E00E943F0140
:1003B0008BEA91E00E94050163E081E00E943F0129
:1003C00080EC91E00E94050164E081E00E943F0121
:1003D00085ED91E00E94050108950E94570161E0BA
:1003E00081E00E943F018AEE91E00E94050162E0F7
:1003F00081E00E943F018FEF91E00E94050163E0E0
:1004000081E00E943F0184E192E00E94050164E0E6
:1004100081E00E943F0189E292E00E940501089577
:100420000E94570161E081E00E943F018EE392E06B
:100430000E94050162E081E00E943F018FEF91E0A0
:100440000E94050163E081E00E943F0184E192E0A7
:100450000E94050164E081E00E943F0189E292E090
:100460000E94050108950E94570161E081E00E9409
:100470003F0183E592E00E94050162E081E00E9475
:100480003F0188E692E00E94050163E081E00E945E
:100490003F018DE792E00E94050164E081E00E9447
:1004A0003F0183E592E00E94050108950E945701F3
:1004B00061E081E00E943F0183E592E00E94050136
:1004C00062E081E00E943F0182E992E00E94050122
:1004D00063E081E00E943F0187EA92E00E9405010B
:1004E00064E081E00E943F0183E592E00E94050103
:1004F000089584B1816084B984B1826084B984B183
:10050000846084B984B1886084B987B18E7F87B9EB
:1005100087B18D7F87B987B18B7F87B987B1877F97
:1005200087B988B1816088B988B1826088B988B19B
:10053000846088B988B1886088B90895309909C005
:10054000309BFECF319BFCCF329BFACF339BF8CF51
:1005500031C0809127048F5F80932704319909C0AF
:10056000309BFECF319BFCCF329BFACF339BF8CF31
:1005700023C08F5F80932704329909C0309BFECF40
:10058000319BFCCF329BFACF339BF8CF17C08F5FE4
:1005900080932704339909C0309BFECF319BFCCF59
:1005A000329BFACF339BF8CF0BC08F5F8093270429
:1005B00080E0089581E0089581E0089581E0089544
:1005C00081E0089595B1916095B995B1926095B922
:1005D00095B1946095B995B1986095B9823069F0FC
:1005E00018F4813031F00895833059F0843069F087
:1005F000089585B18E7F85B9089585B18D7F85B9C0
:10060000089585B18B7F85B9089585B1877F85B9B8
:100610000895CF93DF9310922704C1E0D0E00FC07C
:100620008C2F0E94E2020E949E02882339F0E09102
:100630002704F0E0EC5EFE4F808105C02196C530B6
:10064000D10574F380E0DF91CF9108950F931F934C
:10065000CF93DF9300D0CDB7DEB78EE294E09A83DC
:10066000898300E010E01CC04AE050E0BE016F5FEB
:100670007F4F0E94D608F801EE0FFF1FE00FF11F19
:10068000EE0FFF1FE85DFB4F70A767A30F5F1F4FC3
:10069000E981FA8180818A3219F43196FA83E983FB
:1006A00089819A81FC012081222319F009301105EA
:1006B000DCF210934E0400934D040F900F90DF91E5
:1006C000CF911F910F91089580E090E00CC0FC0144
:1006D000EE0FFF1FE80FF91FEE0FFF1FEF50FC4F4B
:1006E000118210820196893091058CF30895E1EF13
:1006F000F3E084E090E09383828362E070E07583AE
:1007000064834BE050E0518740877387628722E122
:1007100030E037872687718B608B958B848B63E005
:1007200070E0778B668B538F428F758F648F31A308
:1007300020A373A362A397A386A391A780A755A71D
:1007400044A797A786A733AB22AB95AB84AB08959C
:10075000EF92FF920F931F93CF93DF9300E010E08F
:1007600028C0E801CC0FDD1FC00FD11FCC0FDD1F4B
:10077000CF50DC4F6C818A810E943F018881998132
:100780000F2EFAE0EF2EF12CF02DB7010E94A808F1
:10079000CB010E9412016C818A818F5F0E943F0110
:1007A00088819981B7010E94A8080E9412010F5FF9
:1007B0001F4F09301105ACF28091ED039091EE03CB
:1007C000FC01EE0FFF1FDF01A80FB91FAA0FBB1F0F
:1007D000AF50BC4F14966C911497FD0182818250EA
:1007E0000E943F0189EE92E00E940501DF91CF91C6
:1007F0001F910F91FF90EF9008950E94570161E0C3
:1008000081E00E943F018BEE92E00E94050162E0D0
:1008100081E00E943F0180E093E00E94050163E0D7
:1008200081E00E943F0185E193E00E94050164E0C0
:1008300081E00E943F018AE293E00E9405010E944C
:10084000A80308950E94570161E081E00E943F01E2
:100850008FE393E00E94050162E081E00E943F0186
:1008600080E093E00E94050163E081E00E943F0187
:1008700085E193E00E94050164E081E00E943F0170
:100880008AE293E00E9405010E94A8030895CF9296
:10089000DF92EF92FF920F931F93CF93DF930E940B
:1008A000570161E081E00E943F0184E593E00E94EE
:1008B000050162E081E00E943F0180E093E00E9438
:1008C000050163E081E00E943F0185E193E00E9421
:1008D000050164E081E00E943F018AE293E00E940A
:1008E0000501E12CF12C32C0E701CC0FDD1F8E0198
:1008F0000E0D1F1D000F111F0F501C4FF8016481BA
:1009000082810E943F01CE0DDF1DCC0FDD1FC85D2F
:10091000DB4F8FA198A50F2EFAE0CF2ED12CF02D12
:10092000B6010E94A808CB010E941201F80164815F
:1009300082818F5F0E943F018FA198A5B6010E941E
:10094000A8080E941201FFEFEF1AFF0A89E0E816DB
:10095000F10454F2DF91CF911F910F91FF90EF902E
:10096000DF90CF9008950E94570161E081E00E94DE
:100970003F0183E592E00E94050162E081E00E9470
:100980003F0189E693E00E94050163E081E00E9457
:100990003F0182E992E00E94050164E081E00E944B
:1009A0003F0183E592E00E94050108950E945701EE
:1009B00061E081E00E943F0183E592E00E94050131
:1009C00062E081E00E943F018EE793E00E94050112
:1009D00063E081E00E943F0183E592E00E9405010F
:1009E00064E081E00E943F0183E592E00E940501FE
:1009F0000895E2ECF0E080818F73808380818F7CAA
:100A000080838081877F8083808186608083E1EC22
:100A1000F0E080818B7F8083A0ECB0E08C918260DD
:100A20008C938FEC90E09093C5008093C4008081FC
:100A3000886180830895BC0120E030E008C0909177
:100A4000C00095FFFCCF4093C6002F5F3F4FFB01D6
:100A5000E20FF31F40814111F2CF0895EF92FF9210
:100A60000F931F93CF93DF9300D01F92CDB7DEB7C4
:100A700000E010E032C0F801EE0FFF1FE00FF11FA1
:100A8000EE0FFF1FEF50FC4F81818F9380818F937A
:100A90008AE291E09F938F93CE0101967C019F9310
:100AA0008F930E94000AB701CE010E960E94F509AD
:100AB0000F900F900F900F900F900F90083011052E
:100AC00054F4FE013E9601900020E9F731978AE246
:100AD00090E0918380830F5F1F4F093011055CF216
:100AE000CE010E96FC0101900020E9F731972AE033
:100AF00030E0318320830E941B050F900F900F90F0
:100B0000DF91CF911F910F91FF90EF90089583E2B5
:100B1000EAE2F4E0DF011D928A95E9F720E030E097
:100B20000EC08091C0008823E4F78091C600F901CF
:100B3000E85DFB4F82838A3029F02F5F3F4F2232DE
:100B4000310578F3F901E85DFB4F12828CEB93E0FD
:100B50000E941B0508950E94A4000E9477030E9432
:100B6000F9040E9479020E94570161E081E00E942D
:100B70003F0180EC93E00E9405012FEF8BE792E9A3
:100B8000215080409040E1F700C000001092EC033B
:100B9000E0910001F0910101099584E291E00E9449
:100BA0001B05AFEFB7EA21E6A150B0402040E1F7C6
:100BB00000C000000E9487050E9426030E940903CE
:100BC000882309F491C2E091EC034E2F50E04930A4
:100BD000510508F075C2FA01EC5CFF4F0C94BC089B
:100BE000803319F08E3329F06BC283E08093EC03DD
:100BF00067C21092EC0364C28C3349F08E3359F013
:100C0000803309F05DC285E08093EC0359C281E036
:100C10008093EC0355C282E08093EC0351C2803391
:100C200019F08C3329F04CC284E08093EC0348C265
:100C30001092EC0345C2813481F038F48C3309F40E
:100C40005EC08E3309F470C083C0833409F445C09C
:100C5000C0F1843409F44FC07BC00E94B304AAE2FF
:100C6000B4E00D900020E9F7AB52B440A65DBB4F55
:100C700085E0E4EDF3E001900D928A95E1F78DB700
:100C80009EB78D5591090FB6F8949EBF0FBE8DBFCC
:100C9000ADB7BEB711968DE5E8E2F4E001900D9294
:100CA0008A95E1F70E942E0588E08093EC03ADB7AA
:100CB000BEB7A35ABF4F0FB6F894BEBF0FBEADBFAD
:100CC000FFC10E944704BFEF2BE782E9B1502040EB
:100CD0008040E1F700C00000F3C10E94D6040E94EA
:100CE00064039FEFABE7B2E99150A040B040E1F759
:100CF00000C00000E5C181E08093EC03E1C11092E7
:100D0000EB038091ED039091EE03009739F488E0B6
:100D100090E09093EE038093ED03D2C101979093FE
:100D2000EE038093ED03CCC11092EB038091ED03B1
:100D30009091EE038830910529F41092EE03109201
:100D4000ED03BEC101969093EE038093ED03B8C10D
:100D500090E0C0979093F0038093EF032091EB0312
:100D60002223D1F02091ED033091EE03F901EE0F33
:100D7000FF1FE20FF31FEE0FFF1FEF50FC4F4081EC
:100D80005181840F951F918380832F5F3F4F309354
:100D9000EE032093ED031AC02091ED033091EE0392
:100DA000F901EE0FFF1FAC01440F551F880F991F6B
:100DB000880F991F880F991F840F951FE20FF31F4B
:100DC000EE0FFF1FEF50FC4F918380839091EB0358
:100DD00081E089278093EB0373C1823449F0843426
:100DE00059F0813409F06CC186E08093EC0368C14E
:100DF00087E08093EC0364C11092EC0361C18333FC
:100E000009F44AC028F48133F9F0823389F158C1DA
:100E1000823481F0843409F453C0813409F050C124
:100E20002FEF83EC99E0215080409040E1F700C023
:100E3000000046C1AFEFB3EC29E0A150B040204024
:100E4000E1F700C000003CC10E94570161E081E071
:100E50000E943F0189ED93E00E9405018FEF95EA22
:100E6000AEE081509040A040E1F700C0000028C1F2
:100E70000E94570161E081E00E943F018DED93E007
:100E80000E940501BFEF25EA8EE0B150204080406E
:100E9000E1F700C0000014C10E94570161E081E049
:100EA0000E943F0181EE93E00E9405019FEFA5EAB9
:100EB000BEE09150A040B040E1F700C0000000C18A
:100EC00085E08093EC03FCC0823479F08434B9F07F
:100ED000813409F0F5C02FEF83EC99E02150804078
:100EE0009040E1F700C00000EBC0AFEFB3EC29E0A9
:100EF000A150B0402040E1F700C00000E1C085E013
:100F00008093EC03DDC0813481F038F48C3309F434
:100F10005EC08E3309F470C083C0833409F445C0C9
:100F2000C0F1843409F44FC07BC00E94B304AAE22C
:100F3000B4E00D900020E9F7AB52B440A65DBB4F82
:100F400085E0E5EEF3E001900D928A95E1F78DB72B
:100F50009EB78D5591090FB6F8949EBF0FBE8DBFF9
:100F6000ADB7BEB711968DE5E8E2F4E001900D92C1
:100F70008A95E1F70E942E0588E08093EC03ADB7D7
:100F8000BEB7A35ABF4F0FB6F894BEBF0FBEADBFDA
:100F900097C00E944704BFEF2BE782E9B150204081
:100FA0008040E1F700C000008BC00E94D6040E9480
:100FB00064039FEFA3ECB9E09150A040B040E1F78B
:100FC00000C000007DC082E08093EC0379C01092E5
:100FD000EB038091ED039091EE03009739F488E0E4
:100FE00090E09093EE038093ED036AC00197909395
:100FF000EE038093ED0364C01092EB038091ED0348
:101000009091EE038830910529F41092EE0310922E
:10101000ED0356C001969093EE038093ED0350C00C
:1010200090E0C0979093F0038093EF032091EB033F
:101030002223D1F02091ED033091EE03F901EE0F60
:10104000FF1FE20FF31FEE0FFF1FEF50FC4F408119
:101050005181840F951F918380832F5F3F4F309381
:10106000EE032093ED031AC02091ED033091EE03BF
:10107000F901EE0FFF1FAC01440F551F880F991F98
:10108000880F991F880F991F840F951FE20FF31F78
:10109000EE0FFF1FEF50FC4F918380839091EB0385
:1010A00081E089278093EB030BC091E09093EA03E2
:1010B000893331F4E8E2F4E08FE482838BE48383C4
:1010C0002FEF82E597E0215080409040E1F700C08B
:1010D0000000E091EC03F0E0EE0FFF1FE050FF4F47
:1010E0000190F081E02D09958091EA03882309F4AD
:1010F00065CD80912A048F3409F060CD80912B0456
:101100008B3409F05BCD0E94560284E291E00E948C
:101110001B05AFEFB7EA21E6A150B0402040E1F750
:1011200000C000000E9487050E94260383E2EAE2D5
:10113000F4E0DF011D928A95E9F71092EE03109218
:10114000ED031092EC030E9484011092EA0336CD65
:1011500097FB072E16F4009407D077FD09D00E9464
:10116000C20807FC05D03EF4909581959F4F0895E5
:10117000709561957F4F0895EE0FFF1F0590F491D4
:10118000E02D0994AA1BBB1B51E107C0AA1FBB1F7E
:10119000A617B70710F0A61BB70B881F991F5A9503
:1011A000A9F780959095BC01CD010895A0E0B0E02D
:1011B000ECEDF8E00C94F40C5C016B017A01611524
:1011C000710519F0FB0191838083E114F10429F08A
:1011D000C7010297839708F0E5C0E5012196F50164
:1011E0001081812F90E00E94EC09892B11F05E01A3
:1011F000F4CF1D3229F42196F501118101E007C0D9
:101200001B3221F4E5012296F501118100E0E11481
:10121000F10409F1F0E1EF16F10429F43FC010E305
:10122000E114F10421F128E0E216F10401F154F493
:10123000E2E0EE16F10421F5812C912CA12CB0E412
:10124000BB2E3EC0FAE0EF16F10439F020E1E216C1
:10125000F104B1F430C0103319F1FAE0EF2EF12CA3
:10126000ACEC8A2E982CA82CACE0BA2E29C078E0E1
:10127000E72EF12C812C912CA12CE0E1BE2E20C078
:1012800060E070E080E090E897010F2C000C440BC8
:10129000550B0E94C60C49015A0112C0103359F473
:1012A00088818F7D883509F0BACF19812296026036
:1012B00080E1E82EF12C812C912CA12C68E0B62E37
:1012C00040E060E070E0CB0127010F2C000C6608C5
:1012D0007708FE0150ED352E310E29E0231570F40C
:1012E0002FEB210F2A3118F439EC332E06C02FE9E9
:1012F000210F2A3118F529EA322E310E232D30E044
:101300002E153F05DCF447FD16C086169706A80685
:10131000B90670F0A30192010E94B60C630D711D15
:10132000811D911D61307105810520E8920710F043
:101330004FEF01C041E021961081CBCF202F2170CB
:10134000C114D10471F0442329F02197F601D1830F
:10135000C08307C001FF19C02297F601D183C08363
:1013600014C047FF12C0222329F060E070E080E043
:1013700090E804C06FEF7FEF8FEF9FE722E230E04D
:10138000309386042093850409C0222381F0909530
:101390008095709561957F4F8F4F9F4F462F372FC8
:1013A000282F12C040E030E020E090E00DC097FF11
:1013B000F5CF82E290E090938604809385046FEFEE
:1013C0007FEF8FEF9FE7EACF642F732F822FCDB788
:1013D000DEB7E1E10C94100D91110C94030C8032F6
:1013E00019F089508550C8F70895FB01DC010D9074
:1013F0000020E9F7119701900D920020E1F7089580
:10140000AEE0B0E0E6E0FAE00C94010D0D891E8933
:1014100086E08C831A8309838FEF9FE79E838D83F9
:10142000AE01475E5F4F6F89788DCE0101960E94B5
:10143000220AEF81F885E00FF11F10822E96E4E07A
:101440000C941D0DABE0B0E0E8E2FAE00C94F30C74
:101450006C017B018A01FC0117821682838181FF66
:10146000CCC1CE0101963C01F6019381F70193FDB9
:10147000859193FF81917F01882309F4BAC1853258
:1014800039F493FD859193FF81917F01853229F491
:10149000B60190E00E941C0CE7CF912C212C312C3E
:1014A000FFE1F315D8F08B3279F038F4803279F01F
:1014B0008332A1F4232D20611DC08D3261F0803371
:1014C00069F4232D216016C0832D8260382EE32D10
:1014D000E4603E2E2AC0F32DF8601DC037FC2DC0FD
:1014E00020ED280F2A3040F08E32B9F436FC81C14D
:1014F000232D2064322E19C036FE06C08AE0989E45
:10150000200D1124922E11C0EAE02E9E200D1124F0
:10151000222EF32DF0623F2E08C08C3621F4832D4D
:101520008068382E02C0883641F4F70193FD85911A
:1015300093FF81917F018111B3CF982F9F7D9554A7
:10154000933028F40C5F1F4F9FE399830DC08336BF
:1015500031F0833771F0833509F059C021C0F801AB
:10156000808189830E5F1F4F88248394912C5301BF
:1015700013C02801F2E04F0E511CF801A080B18089
:1015800036FE03C0692D70E002C06FEF7FEFC5012A
:101590000E94110C4C018201F32DFF773F2E16C0E3
:1015A000280122E0420E511CF801A080B18036FED5
:1015B00003C0692D70E002C06FEF7FEFC5010E948C
:1015C000060C4C01F32DF0683F2E820133FC1BC04A
:1015D000822D90E088169906B0F4B60180E290E082
:1015E0000E941C0C2A94F4CFF50137FC859137FE3C
:1015F00081915F01B60190E00E941C0C21102A9499
:1016000021E0821A91088114910471F7E8C08436B0
:1016100011F0893641F5F80137FE07C0608171810C
:10162000828193810C5F1F4F08C060817181072EFA
:10163000000C880B990B0E5F1F4FF32DFF763F2E8A
:1016400097FF09C090958095709561957F4F8F4F5A
:101650009F4FF0683F2E2AE030E0A3010E94580C13
:10166000882E861845C0853731F4232D2F7EB22E63
:101670002AE030E025C0932D997FB92E8F36C1F036
:1016800018F4883579F0B5C0803719F0883721F023
:10169000B0C0E92FE061BE2EB4FE0DC0FB2DF4609A
:1016A000BF2E09C034FE0AC0292F2660B22E06C004
:1016B00028E030E005C020E130E002C020E132E067
:1016C000F801B7FE07C060817181828193810C5F50
:1016D0001F4F06C06081718180E090E00E5F1F4F58
:1016E000A3010E94580C882E8618FB2DFF773F2EF1
:1016F00036FE0DC0232D2E7FA22E891458F434FE01
:101700000BC032FC09C0832D8E7EA82E05C0B82CDC
:10171000A32C03C0B82C01C0B92CA4FE0FC0FE013D
:10172000E80DF11D8081803321F49A2D997EA92E38
:1017300009C0A2FE06C0B394B39404C08A2D867873
:1017400009F0B394A3FC11C0A0FE06C0B21488F443
:10175000280C922C9B180EC0B21460F4B60180E2E3
:1017600090E00E941C0CB394F7CFB21418F42B181D
:1017700002C0982C212CA4FE10C0B60180E390E09A
:101780000E941C0CA2FE17C0A1FC03C088E790E0D9
:1017900002C088E590E0B6010CC08A2D867859F029
:1017A000A1FE02C08BE201C080E2A7FC8DE2B6017F
:1017B00090E00E941C0C891438F4B60180E390E09C
:1017C0000E941C0C9A94F7CF8A94F301E80DF11D46
:1017D0008081B60190E00E941C0C8110F5CF222080
:1017E00009F442CEB60180E290E00E941C0C2A94DB
:1017F000F6CFF6018681978102C08FEF9FEF2B967F
:10180000E2E10C940F0D992788270895FC010590BB
:10181000615070400110D8F7809590958E0F9F1FF2
:101820000895FC016150704001900110D8F7809537
:1018300090958E0F9F1F08950F931F93CF93DF9363
:10184000FB01238121FD03C08FEF9FEF2CC022FFFE
:1018500016C046815781248135814217530744F4CD
:10186000A081B1819D012F5F3F4F318320838C93F5
:10187000268137812F5F3F4F3783268314C08B012A
:10188000EC01FB010084F185E02D0995892BE1F63F
:10189000D80116968D919C911797019617969C9357
:1018A0008E931697CE01DF91CF911F910F910895DE
:1018B000FA01AA27283051F1203181F1E8946F9381
:1018C0006E7F6E5F7F4F8F4F9F4FAF4FB1E03ED027
:1018D000B4E03CD0670F781F891F9A1FA11D680FC5
:1018E000791F8A1F911DA11D6A0F711D811D911DF8
:1018F000A11D20D009F468943F912AE0269F11246D
:101900003019305D3193DEF6CF010895462F4770D0
:10191000405D4193B3E00FD0C9F7F6CF462F4F702B
:10192000405D4A3318F0495D31FD4052419302D089
:10193000A9F7EACFB4E0A69597958795779567952F
:10194000BA95C9F700976105710508959B01AC012F
:101950000A2E06945795479537952795BA95C9F756
:10196000620F731F841F951FA01D0895DB018F93C5
:101970009F930E94E80CBF91AF91A29F800D911D93
:10198000A39F900DB29F900D11240895A1E21A2EED
:10199000AA1BBB1BFD010DC0AA1FBB1FEE1FFF1F13
:1019A000A217B307E407F50720F0A21BB30BE40B63
:1019B000F50B661F771F881F991F1A9469F76095AA
:1019C0007095809590959B01AC01BD01CF01089564
:1019D0000E942A0DA59F900DB49F900DA49F800D8D
:1019E000911D112408952F923F924F925F926F9212
:1019F0007F928F929F92AF92BF92CF92DF92EF929F
:101A0000FF920F931F93CF93DF93CDB7DEB7CA1B1F
:101A1000DB0B0FB6F894DEBF0FBECDBF09942A884A
:101A2000398848885F846E847D848C849B84AA84F2
:101A3000B984C884DF80EE80FD800C811B81AA817F
:101A4000B981CE0FD11D0FB6F894DEBF0FBECDBF4A
:101A5000ED010895A29FB001B39FC001A39F700D37
:101A6000811D1124911DB29F700D811D1124911DA6
:061A70000895F894FFCF79
:101A760084016101A701FD032204CA01ED011002E0
:101A86003302560231323341343536423738394320
:101A96003C303E4441542443000025640031323A30
:101AA60030302020202020204261742E203130301A
:101AB60025002D2D2D2D2D2D2D2D2D2D2D2D2D2D85
:101AC6002D2D2D2D2D2D007C20202020202041671E
:101AD600726567617220203E20207C007C203C20BD
:101AE60020426C7565746F6F746820203E20207CE0
:101AF600007C20203C2020205175697461722020D2
:101B0600202020207C004274682E202020202020C7
:101B1600204261742E2031303025007C2020204167
:101B2600202D2056696E63756C61722020207C0022
:101B36007C20202042202D204D6F646966696361F8
:101B46007220207C007C20202044202D20566F6CA3
:101B560076657220202020207C0042746820202098
:101B660020202020202056696E63756C6172007CEF
:101B760020412D20526573697374656E63696173C4
:101B860020207C007C20422D20546F726E696C6C84
:101B96006F7320202020207C007C20442D20566F4F
:101BA6006C76657220202020202020207C00427444
:101BB6006820202020202020204D6F6469666963FC
:101BC6006172007C20202020202020202020202040
:101BD6002020202020207C007C204D616E697075BD
:101BE6006C6163696F6E20206465207C007C2069CF
:101BF60074656D7320656E2070726F6365736F20F8
:101C06007C007C2020202020536F6C6963697475EA
:101C160064202020207C007C202020202066696E05
:101C2600616C697A6164612020207C0031323A302F
:101C3600302020202020204167722E203130302590
:101C4600002D20202042756666657220656E7669D5
:101C56006F2020202D007C200058004167726567A8
:101C66006172202020204261742E20313030250000
:101C76007C313A3030207C20323A3030207C2033A0
:101C86003A30307C007C343A3030207C20353A3093
:101C960030207C20363A30307C007C373A30302099
:101CA6007C20383A3030207C20393A30307C005164
:101CB600756974617220202020204261742E2031C3
:101CC6003030250053746F636B2020202020204283
:101CD60061742E2031303025007C202020202045C4
:101CE6006E7669616E646F20202020207C007C2047
:101CF6002020202056616369616E646F2E2E20209D
:101D0600207C007C20202056696E63756C616E64B1
:101D16006F2E2E20207C007C202020204D6F6469B1
:101D260066696361722E2E2020207C004F4B0A00CC
:101D36002020496E696369616C697A616E646F20FF
:101D46004C4344004154244100313A2000323A20A9
:0A1D560000333A20004154244200FB
:00000001FF
