:100000000C943D000C945A000C945A000C945A0025
:100010000C945A000C945A000C945A000C945A00F8
:100020000C945A000C945A000C945A000C945A00E8
:100030000C945A000C945A000C945A000C945A00D8
:100040000C945A000C945A000C945A000C945A00C8
:100050000C945A000C945A000C945A000C945A00B8
:100060000C945A000C945A000506F905180624064B
:100070009F0709071B078007840811241FBECFEFC5
:10008000D8E0DEBFCDBF13E0A0E0B1E0E8EFFAE1D9
:1000900002C005900D92AE3EB107D9F724E0AEEE56
:1000A000B3E001C01D92AB38B207E1F70E94AB0587
:1000B0000C947A0D0C94000080FF04C09BB19061F9
:1000C0009BB903C09BB19F7E9BB981FF04C09BB1CC
:1000D00090629BB903C09BB19F7D9BB982FF04C016
:1000E0009BB190649BB903C09BB19F7B9BB983FF7D
:1000F00004C08BB180688BB903C08BB18F778BB98B
:100100008BB188608BB987EC90E00197F1F700C064
:1001100000008BB1877F8BB90895CF93C82F8BB127
:100120008B7F8BB900008C2F82958F700E945C00B2
:100130008C2F8F700E945C008FE99FE00197F1F790
:1001400000C00000CF910895CF938AB184608AB92E
:100150008AB188608AB98BB1877F8BB98BB18B7F6D
:100160008BB98AB180618AB98AB180628AB98AB151
:1001700080648AB98AB180688AB92FEF89EF90E0EC
:10018000215080409040E1F700C00000C0E00AC06C
:1001900083E00E945C008FE19EE40197F1F700C0CC
:1001A0000000CF5FC330A0F383E30E948D0082E3A1
:1001B0000E948D0088E20E948D008CE00E948D00DC
:1001C00086E00E948D0081E00E948D008FED9EE20E
:1001D0000197F1F700C00000CF910895CF93C82F89
:1001E0008BB184608BB900008C2F82958F700E9438
:1001F0005C008C2F8F700E945C008FE99FE001975C
:10020000F1F700C00000CF910895CF93DF93EC0188
:1002100003C00E94EE00219688818111FACFDF9100
:10022000CF9108950F931F93CF93DF93CDB7DEB790
:100230002A970FB6F894DEBF0FBECDBF9F938F9362
:100240008EE291E09F938F938E010F5F1F4F1F935C
:100250000F930E94410AC8010E9405010F900F9060
:100260000F900F900F900F902A960FB6F894DEBF64
:100270000FBECDBFDF91CF911F910F9108956230D6
:1002800059F018F4613031F00DC0633039F064304A
:1002900039F008C0815007C0815C05C08D5E03C085
:1002A0008D5A01C0815080680E948D00089581E0C0
:1002B0000E948D008FE39FE10197F1F700C00000DD
:1002C00008950E94570161E081E00E943F0181E3AF
:1002D00091E00E94050162E081E00E943F0186E416
:1002E00091E00E94050163E081E00E943F018BE5FF
:1002F00091E00E94050164E081E00E943F0186E4F4
:1003000091E00E94050108950E94570161E081E09B
:100310000E943F0181E391E00E94050162E081E0DB
:100320000E943F0186E491E00E94050163E081E0C4
:100330000E943F0180E791E00E94050164E081E0B6
:100340000E943F0186E491E00E94050108950E9409
:10035000570161E081E00E943F0181E391E00E944A
:10036000050162E081E00E943F0186E491E00E9485
:10037000050163E081E00E943F0185E891E00E9471
:10038000050164E081E00E943F0186E491E00E9463
:10039000050108950E94570161E081E00E943F013C
:1003A0008AE991E00E94050162E081E00E943F013C
:1003B0008FEA91E00E94050163E081E00E943F0125
:1003C00084EC91E00E94050164E081E00E943F011D
:1003D00089ED91E00E94050108950E94570161E0B6
:1003E00081E00E943F018EEE91E00E94050162E0F3
:1003F00081E00E943F0183E092E00E94050163E0FA
:1004000081E00E943F0188E192E00E94050164E0E2
:1004100081E00E943F018DE292E00E940501089573
:100420000E94570161E081E00E943F0182E492E076
:100430000E94050162E081E00E943F0183E092E0BA
:100440000E94050163E081E00E943F0188E192E0A3
:100450000E94050164E081E00E943F018DE292E08C
:100460000E94050108950E94570161E081E00E9409
:100470003F0187E592E00E94050162E081E00E9471
:100480003F018CE692E00E94050163E081E00E945A
:100490003F0181E892E00E94050164E081E00E9452
:1004A0003F0187E592E00E94050108950E945701EF
:1004B00061E081E00E943F0187E592E00E94050132
:1004C00062E081E00E943F0186E992E00E9405011E
:1004D00063E081E00E943F018BEA92E00E94050107
:1004E00064E081E00E943F0187E592E00E940501FF
:1004F000089584B1816084B984B1826084B984B183
:10050000846084B984B1886084B987B18E7F87B9EB
:1005100087B18D7F87B987B18B7F87B987B1877F97
:1005200087B988B1816088B988B1826088B988B19B
:10053000846088B988B1886088B90895309909C005
:10054000309BFECF319BFCCF329BFACF339BF8CF51
:1005500031C080912B048F5F80932B04319909C0A7
:10056000309BFECF319BFCCF329BFACF339BF8CF31
:1005700023C08F5F80932B04329909C0309BFECF3C
:10058000319BFCCF329BFACF339BF8CF17C08F5FE4
:1005900080932B04339909C0309BFECF319BFCCF55
:1005A000329BFACF339BF8CF0BC08F5F80932B0425
:1005B00080E0089581E0089581E0089581E0089544
:1005C00081E0089595B1916095B995B1926095B922
:1005D00095B1946095B995B1986095B9823069F0FC
:1005E00018F4813031F00895833059F0843069F087
:1005F000089585B18E7F85B9089585B18D7F85B9C0
:10060000089585B18B7F85B9089585B1877F85B9B8
:100610000895CF93DF9310922B04C1E0D0E00FC078
:100620008C2F0E94E2020E949E02882339F0E09102
:100630002B04F0E0EC5EFE4F808105C02196C530B2
:10064000D10574F380E0DF91CF9108950F931F934C
:10065000CF93DF9300D0CDB7DEB782E394E09A83E7
:10066000898300E010E01CC04AE050E0BE016F5FEB
:100670007F4F0E941709F801EE0FFF1FE00FF11FD7
:10068000EE0FFF1FE45DFB4F70A767A30F5F1F4FC7
:10069000E981FA8180818A3219F43196FA83E983FB
:1006A00089819A81FC012081222319F009301105EA
:1006B000DCF210935204009351040F900F90DF91DD
:1006C000CF911F910F91089580E090E00CC0FC0144
:1006D000EE0FFF1FE80FF91FEE0FFF1FEB50FC4F4F
:1006E000118210820196893091058CF30895E5EF0F
:1006F000F3E084E090E09383828362E070E07583AE
:1007000064834BE050E0518740877387628722E122
:1007100030E037872687718B608B958B848B63E005
:1007200070E0778B668B538F428F758F648F31A308
:1007300020A373A362A397A386A391A780A755A71D
:1007400044A797A786A733AB22AB95AB84AB08959C
:10075000EF92FF920F931F93CF93DF9300E010E08F
:1007600028C0E801CC0FDD1FC00FD11FCC0FDD1F4B
:10077000CB50DC4F6C818A810E943F018881998136
:100780000F2EFAE0EF2EF12CF02DB7010E94E908B0
:10079000CB010E9412016C818A818F5F0E943F0110
:1007A00088819981B7010E94E9080E9412010F5FB8
:1007B0001F4F09301105ACF28091F1039091F203C3
:1007C000FC01EE0FFF1FDF01A80FB91FAA0FBB1F0F
:1007D000AB50BC4F14966C911497FD0182818250EE
:1007E0000E943F018DEE92E00E940501DF91CF91C2
:1007F0001F910F91FF90EF9008950E94570161E0C3
:1008000081E00E943F018FEE92E00E94050162E0CC
:1008100081E00E943F0184E093E00E94050163E0D3
:1008200081E00E943F0189E193E00E94050164E0BC
:1008300081E00E943F018EE293E00E9405010E9448
:10084000A80308950E94570161E081E00E943F01E2
:1008500083E493E00E94050162E081E00E943F0191
:1008600084E093E00E94050163E081E00E943F0183
:1008700089E193E00E94050164E081E00E943F016C
:100880008EE293E00E9405010E94A8030895CF9292
:10089000DF92EF92FF920F931F93CF93DF930E940B
:1008A000570161E081E00E943F0188E593E00E94EA
:1008B000050162E081E00E943F0184E093E00E9434
:1008C000050163E081E00E943F0189E193E00E941D
:1008D000050164E081E00E943F018EE293E00E9406
:1008E0000501E12CF12C32C0E701CC0FDD1F8E0198
:1008F0000E0D1F1D000F111F0B501C4FF8016481BE
:1009000082810E943F01CE0DDF1DCC0FDD1FC45D33
:10091000DB4F8FA198A50F2EFAE0CF2ED12CF02D12
:10092000B6010E94E908CB010E941201F80164811E
:1009300082818F5F0E943F018FA198A5B6010E941E
:10094000E9080E941201FFEFEF1AFF0A89E0E8169A
:10095000F10454F2DF91CF911F910F91FF90EF902E
:10096000DF90CF9008950E94570161E081E00E94DE
:100970003F0187E592E00E94050162E081E00E946C
:100980003F018DE693E00E94050163E081E00E9453
:100990003F0186E992E00E94050164E081E00E9447
:1009A0003F0187E592E00E94050108950E945701EA
:1009B00061E081E00E943F0187E592E00E9405012D
:1009C00062E081E00E943F0182E893E00E9405011D
:1009D00063E081E00E943F0187E592E00E9405010B
:1009E00064E081E00E943F0187E592E00E940501FA
:1009F0000895E2ECF0E080818F73808380818F7CAA
:100A000080838081877F8083808186608083E1EC22
:100A1000F0E080818B7F8083A0ECB0E08C918260DD
:100A20008C938FEC90E09093C5008093C4008081FC
:100A3000886180830895BC0120E030E008C0909177
:100A4000C00095FFFCCF4093C6002F5F3F4FFB01D6
:100A5000E20FF31F40814111F2CF0895EF92FF9210
:100A60000F931F93CF93DF9300D01F92CDB7DEB7C4
:100A700000E010E032C0F801EE0FFF1FE00FF11FA1
:100A8000EE0FFF1FEB50FC4F81818F9380818F937E
:100A90008EE291E09F938F93CE0101967C019F930C
:100AA0008F930E94410AB701CE010E960E94360A2A
:100AB0000F900F900F900F900F900F90083011052E
:100AC00054F4FE013E9601900020E9F731978AE246
:100AD00090E0918380830F5F1F4F093011055CF216
:100AE000CE010E96FC0101900020E9F731972AE033
:100AF00030E0318320830E941B050F900F900F90F0
:100B0000DF91CF911F910F91FF90EF90089583E2B5
:100B1000EEE2F4E0DF011D928A95E9F720E030E093
:100B20000EC08091C0008823E4F78091C600F901CF
:100B3000E45DFB4F82838A3029F02F5F3F4F2232E2
:100B4000310578F3F901E45DFB4F128280EC93E00C
:100B50000E941B0508950E94A4000E9477030E9432
:100B6000F9040E9479020E94570161E081E00E942D
:100B70003F0184EC93E00E9405012FEF89E698E1A4
:100B8000215080409040E1F700C0000084E291E0F5
:100B90000E941B05AFEFB7EA21E6A150B04020400C
:100BA000E1F700C000000E9487050E9426038FEF36
:100BB00093EDA0E381509040A040E1F700C0000019
:100BC0001092F003E0910001F091010109950E945B
:100BD0000903882309F4C7C2E091F0034E2F50E0C7
:100BE0004930510508F0ABC2FA01EC5CFF4F0C94A0
:100BF000FD08803319F08E3329F0A1C283E0809381
:100C0000F0039DC21092F0039AC28C3349F08E33E8
:100C100059F0803309F093C285E08093F0038FC2CE
:100C200081E08093F0038BC282E08093F00387C25F
:100C3000803319F08C3329F082C284E08093F00372
:100C40007EC21092F0037BC2813489F038F48C3379
:100C500009F471C08E3309F483C096C0833409F45B
:100C600058C008F44AC0843409F461C08DC00E94A1
:100C7000B304EEE2F4E083E2DF011D928A95E9F726
:100C8000DF010D900020E9F7AF52B440A25DBB4FE9
:100C900085E0E8EDF3E001900D928A95E1F78DB7DC
:100CA0009EB78D5591090FB6F8949EBF0FBE8DBFAC
:100CB000ADB7BEB711968DE5ECE2F4E001900D9270
:100CC0008A95E1F70E942E059FEFA7EAB1E69150C1
:100CD000A040B040E1F700C0000081E08093EE0347
:100CE00088E08093F0038DB79EB7835A9F4F0FB66D
:100CF000F8949EBF0FBE8DBF22C20E9447049FEF93
:100D0000A7EAB1E69150A040B040E1F700C0000072
:100D100016C20E94D6040E9464032FEF87EA91E670
:100D2000215080409040E1F700C0000008C281E0FF
:100D30008093F00304C21092EF038091F10390912D
:100D4000F203009739F488E090E09093F2038093E7
:100D5000F103F5C101979093F2038093F103EFC182
:100D60001092EF038091F1039091F2038830910586
:100D700029F41092F2031092F103E1C101969093CD
:100D8000F2038093F103DBC190E0C0979093F403EA
:100D90008093F3032091EF032223D1F02091F103FC
:100DA0003091F203F901EE0FFF1FE20FF31FEE0F78
:100DB000FF1FEB50FC4F40815181840F951F9183A1
:100DC00080832F5F3F4F3093F2032093F1031AC0CB
:100DD0002091F1033091F203F901EE0FFF1FAC01F6
:100DE000440F551F880F991F880F991F880F991F4F
:100DF000840F951FE20FF31FEE0FFF1FEB50FC4F08
:100E0000918380839091EF0381E089278093EF03A2
:100E100096C1823449F0843459F0813409F08FC18D
:100E200086E08093F0038BC187E08093F00387C155
:100E30001092F00384C1833309F44AC028F481334B
:100E4000F9F0823389F17BC1823481F0843409F472
:100E500053C0813409F073C1AFEFB3EC29E0A15066
:100E6000B0402040E1F700C0000069C18FEF93EC73
:100E7000A9E081509040A040E1F700C000005FC1B0
:100E80000E94570161E081E00E943F018DED93E0F7
:100E90000E940501BFEF25EA8EE0B150204080405E
:100EA000E1F700C000004BC10E94570161E081E002
:100EB0000E943F0181EE93E00E9405019FEFA5EAA9
:100EC000BEE09150A040B040E1F700C0000037C143
:100ED0000E94570161E081E00E943F0185EE93E0AE
:100EE0000E9405012FEF85EA9EE02150804090404E
:100EF000E1F700C0000023C185E08093F0031FC12B
:100F0000823479F08434B9F0813409F018C1AFEF3C
:100F1000B3EC29E0A150B0402040E1F700C0000050
:100F20000EC18FEF93ECA9E081509040A040E1F713
:100F300000C0000004C185E08093F00300C181344B
:100F400089F038F48C3309F471C08E3309F483C00E
:100F500096C0833409F458C008F44AC0843409F4B4
:100F600061C08DC00E94B304EEE2F4E083E2DF01D1
:100F70001D928A95E9F7DF010D900020E9F7AF5245
:100F8000B440A25DBB4F85E0E9EEF3E001900D9225
:100F90008A95E1F78DB79EB78D5591090FB6F894F4
:100FA0009EBF0FBE8DBFADB7BEB711968DE5ECE20B
:100FB000F4E001900D928A95E1F70E942E059FEFD3
:100FC000A7EAB1E69150A040B040E1F700C00000B0
:100FD00081E08093EE0388E08093F0038DB79EB7A5
:100FE000835A9F4F0FB6F8949EBF0FBE8DBFA7C008
:100FF0000E9447049FEFA7EAB1E69150A040B0409D
:10100000E1F700C000009BC00E94D6040E94640368
:101010002FEF87EA91E6215080409040E1F700C031
:1010200000008DC082E08093F00389C01092EF032E
:101030008091F1039091F203009739F488E090E0F9
:101040009093F2038093F1037AC001979093F20397
:101050008093F10374C01092EF038091F10390919B
:10106000F2038830910529F41092F2031092F103F3
:1010700066C001969093F2038093F10360C090E004
:10108000C0979093F4038093F3032091EF032223FE
:10109000D1F02091F1033091F203F901EE0FFF1F1F
:1010A000E20FF31FEE0FFF1FEB50FC4F4081518109
:1010B000840F951F918380832F5F3F4F3093F203FE
:1010C0002093F1031AC02091F1033091F203F9014A
:1010D000EE0FFF1FAC01440F551F880F991F880F9B
:1010E000991F880F991F840F951FE20FF31FEE0FB2
:1010F000FF1FEB50FC4F918380839091EF0381E0C1
:1011000089278093EF031BC0813319F0893389F05D
:1011100016C08AE291E00E941B05AFEFB7EA21E614
:10112000A150B0402040E1F700C000000E948705B8
:1011300006C0ECE2F4E08FE482838BE483838FEFDC
:1011400092E5A7E081509040A040E1F700C0000088
:10115000E091F003F0E0EE0FFF1FE050FF4F019031
:10116000F081E02D09958091EE03882309F42FCDBD
:1011700080912E048F3409F02ACD80912F048B3476
:1011800009F025CD0E94560284E291E00E941B05E1
:10119000BFEF27EA81E6B15020408040E1F700C070
:1011A00000000E9487050E94260383E2EEE2F4E03D
:1011B000DF011D928A95E9F70E9464031092F20301
:1011C0001092F1031092F0030E9484011092EE033A
:1011D000FECC97FB072E16F4009407D077FD09D0BC
:1011E0000E94030907FC05D03EF4909581959F4F1E
:1011F0000895709561957F4F0895EE0FFF1F05903C
:10120000F491E02D0994AA1BBB1B51E107C0AA1F52
:10121000BB1FA617B70710F0A61BB70B881F991F97
:101220005A95A9F780959095BC01CD010895A0E04D
:10123000B0E0EDE1F9E00C94350D5C016B017A0151
:101240006115710519F0FB0191838083E114F104AC
:1012500029F0C7010297839708F0E5C0E5012196C0
:10126000F5011081812F90E00E942D0A892B11F049
:101270005E01F4CF1D3229F42196F501118101E0C0
:1012800007C01B3221F4E5012296F501118100E02F
:10129000E114F10409F1F0E1EF16F10429F43FC083
:1012A00010E3E114F10421F128E0E216F10401F168
:1012B00054F4E2E0EE16F10421F5812C912CA12CDE
:1012C000B0E4BB2E3EC0FAE0EF16F10439F020E1A5
:1012D000E216F104B1F430C0103319F1FAE0EF2E48
:1012E000F12CACEC8A2E982CA82CACE0BA2E29C09C
:1012F00078E0E72EF12C812C912CA12CE0E1BE2E80
:1013000020C060E070E080E090E897010F2C000CB6
:10131000440B550B0E94070D49015A0112C01033AE
:1013200059F488818F7D883509F0BACF19812296CA
:10133000026080E1E82EF12C812C912CA12C68E038
:10134000B62E40E060E070E0CB0127010F2C000CCE
:1013500066087708FE0150ED352E310E29E0231581
:1013600070F42FEB210F2A3118F439EC332E06C01C
:101370002FE9210F2A3118F529EA322E310E232DBB
:1013800030E02E153F05DCF447FD16C086169706A3
:10139000A806B90670F0A30192010E94F70C630D34
:1013A000711D811D911D61307105810520E8920735
:1013B00010F04FEF01C041E021961081CBCF202FDC
:1013C0002170C114D10471F0442329F02197F60152
:1013D000D183C08307C001FF19C02297F601D183D2
:1013E000C08314C047FF12C0222329F060E070E0E0
:1013F00080E090E804C06FEF7FEF8FEF9FE722E27D
:1014000030E030938A042093890409C0222381F0BC
:1014100090958095709561957F4F8F4F9F4F462F88
:10142000372F282F12C040E030E020E090E00DC0C0
:1014300097FFF5CF82E290E090938A04809389042D
:101440006FEF7FEF8FEF9FE7EACF642F732F822F2D
:10145000CDB7DEB7E1E10C94510D91110C94440C21
:10146000803219F089508550C8F70895FB01DC01DE
:101470000D900020E9F7119701900D920020E1F7FF
:101480000895AEE0B0E0E7E4FAE00C94420D0D8977
:101490001E8986E08C831A8309838FEF9FE79E83E2
:1014A0008D83AE01475E5F4F6F89788DCE010196C7
:1014B0000E94630AEF81F885E00FF11F10822E96DB
:1014C000E4E00C945E0DABE0B0E0E9E6FAE00C94E9
:1014D000340D6C017B018A01FC0117821682838125
:1014E00081FFCCC1CE0101963C01F6019381F70149
:1014F00093FD859193FF81917F01882309F4BAC1FF
:10150000853239F493FD859193FF81917F01853276
:1015100029F4B60190E00E945D0CE7CF912C212CBC
:10152000312CFFE1F315D8F08B3279F038F48032AA
:1015300079F08332A1F4232D20611DC08D3261F03A
:10154000803369F4232D216016C0832D8260382EEC
:10155000E32DE4603E2E2AC0F32DF8601DC037FC59
:101560002DC020ED280F2A3040F08E32B9F436FC21
:1015700081C1232D2064322E19C036FE06C08AE0B8
:10158000989E200D1124922E11C0EAE02E9E200D6F
:101590001124222EF32DF0623F2E08C08C3621F448
:1015A000832D8068382E02C0883641F4F70193FD00
:1015B000859193FF81917F018111B3CF982F9F7DFA
:1015C0009554933028F40C5F1F4F9FE399830DC00F
:1015D000833631F0833771F0833509F059C021C06B
:1015E000F801808189830E5F1F4F88248394912C9A
:1015F000530113C02801F2E04F0E511CF801A080E6
:10160000B18036FE03C0692D70E002C06FEF7FEF3E
:10161000C5010E94520C4C018201F32DFF773F2E31
:1016200016C0280122E0420E511CF801A080B180B2
:1016300036FE03C0692D70E002C06FEF7FEFC50179
:101640000E94470C4C01F32DF0683F2E820133FCC1
:101650001BC0822D90E088169906B0F4B60180E296
:1016600090E00E945D0C2A94F4CFF50137FC85913F
:1016700037FE81915F01B60190E00E945D0C211060
:101680002A9421E0821A91088114910471F7E8C02C
:10169000843611F0893641F5F80137FE07C06081C4
:1016A0007181828193810C5F1F4F08C060817181BD
:1016B000072E000C880B990B0E5F1F4FF32DFF7642
:1016C0003F2E97FF09C090958095709561957F4F4B
:1016D0008F4F9F4FF0683F2E2AE030E0A3010E9419
:1016E000990C882E861845C0853731F4232D2F7E1E
:1016F000B22E2AE030E025C0932D997FB92E8F3687
:10170000C1F018F4883579F0B5C0803719F0883702
:1017100021F0B0C0E92FE061BE2EB4FE0DC0FB2D5C
:10172000F460BF2E09C034FE0AC0292F2660B22EF5
:1017300006C028E030E005C020E130E002C020E132
:1017400032E0F801B7FE07C0608171818281938128
:101750000C5F1F4F06C06081718180E090E00E5FDA
:101760001F4FA3010E94990C882E8618FB2DFF772E
:101770003F2E36FE0DC0232D2E7FA22E891458F445
:1017800034FE0BC032FC09C0832D8E7EA82E05C00E
:10179000B82CA32C03C0B82C01C0B92CA4FE0FC0D8
:1017A000FE01E80DF11D8081803321F49A2D997E90
:1017B000A92E09C0A2FE06C0B394B39404C08A2D1A
:1017C000867809F0B394A3FC11C0A0FE06C0B21441
:1017D00088F4280C922C9B180EC0B21460F4B60149
:1017E00080E290E00E945D0CB394F7CFB21418F43D
:1017F0002B1802C0982C212CA4FE10C0B60180E347
:1018000090E00E945D0CA2FE17C0A1FC03C088E717
:1018100090E002C088E590E0B6010CC08A2D867881
:1018200059F0A1FE02C08BE201C080E2A7FC8DE26C
:10183000B60190E00E945D0C891438F4B60180E393
:1018400090E00E945D0C9A94F7CF8A94F301E80D22
:10185000F11D8081B60190E00E945D0C8110F5CFF2
:10186000222009F442CEB60180E290E00E945D0C95
:101870002A94F6CFF6018681978102C08FEF9FEF01
:101880002B96E2E10C94500D992788270895FC01CE
:101890000590615070400110D8F7809590958E0F9B
:1018A0009F1F0895FC016150704001900110D8F70E
:1018B000809590958E0F9F1F08950F931F93CF9340
:1018C000DF93FB01238121FD03C08FEF9FEF2CC02D
:1018D00022FF16C046815781248135814217530764
:1018E00044F4A081B1819D012F5F3F4F318320835C
:1018F0008C93268137812F5F3F4F3783268314C017
:101900008B01EC01FB010084F185E02D0995892B09
:10191000E1F6D80116968D919C911797019617962E
:101920009C938E931697CE01DF91CF911F910F91CB
:101930000895FA01AA27283051F1203181F1E89465
:101940006F936E7F6E5F7F4F8F4F9F4FAF4FB1E0B2
:101950003ED0B4E03CD0670F781F891F9A1FA11DAD
:10196000680F791F8A1F911DA11D6A0F711D811DAE
:10197000911DA11D20D009F468943F912AE0269F73
:1019800011243019305D3193DEF6CF010895462FD2
:101990004770405D4193B3E00FD0C9F7F6CF462FB3
:1019A0004F70405D4A3318F0495D31FD405241931C
:1019B00002D0A9F7EACFB4E0A695979587957795D9
:1019C0006795BA95C9F700976105710508959B0160
:1019D000AC010A2E06945795479537952795BA95E9
:1019E000C9F7620F731F841F951FA01D0895DB01A7
:1019F0008F939F930E94290DBF91AF91A29F800D5D
:101A0000911DA39F900DB29F900D11240895A1E206
:101A10001A2EAA1BBB1BFD010DC0AA1FBB1FEE1F68
:101A2000FF1FA217B307E407F50720F0A21BB30BB3
:101A3000E40BF50B661F771F881F991F1A9469F72F
:101A400060957095809590959B01AC01BD01CF018B
:101A500008950E946B0DA59F900DB49F900DA49FBB
:101A6000800D911D112408952F923F924F925F9205
:101A70006F927F928F929F92AF92BF92CF92DF929E
:101A8000EF92FF920F931F93CF93DF93CDB7DEB703
:101A9000CA1BDB0B0FB6F894DEBF0FBECDBF099497
:101AA0002A88398848885F846E847D848C849B84EE
:101AB000AA84B984C884DF80EE80FD800C811B81FC
:101AC000AA81B981CE0FD11D0FB6F894DEBF0FBE2B
:101AD000CDBFED010895A29FB001B39FC001A39FA8
:101AE000700D811D1124911DB29F700D811D112457
:081AF000911D0895F894FFCF49
:101AF80084016101A701FD032204CA01ED0110025E
:101B0800330256023132334134353642373839439D
:101B18003C303E44415424430000415400002564B5
:101B28000031323A30302020202020204261742EAB
:101B38002031303025002D2D2D2D2D2D2D2D2D2D05
:101B48002D2D2D2D2D2D2D2D2D2D007C20202020CF
:101B580020204167726567617220203E20207C004A
:101B68007C203C2020426C7565746F6F746820205F
:101B78003E20207C007C20203C2020205175697468
:101B880061722020202020207C004274682E2020B2
:101B980020202020204261742E2031303025007C06
:101BA80020202041202D2056696E63756C617220BB
:101BB80020207C007C20202042202D204D6F64694D
:101BC800666963617220207C007C20202044202DDF
:101BD80020566F6C76657220202020207C0042748D
:101BE8006820202020202020202056696E63756CF4
:101BF8006172007C20412D20526573697374656E93
:101C08006369617320207C007C20422D20546F7210
:101C18006E696C6C6F7320202020207C007C20442F
:101C28002D20566F6C7665722020202020202020E1
:101C38007C0042746820202020202020204D6F64E2
:101C4800696669636172007C2020202020202020A2
:101C5800202020202020202020207C007C204D6176
:101C68006E6970756C6163696F6E20206465207C95
:101C7800007C206974656D7320656E2070726F63D7
:101C880065736F207C007C2020202020536F6C69B6
:101C98006369747564202020207C007C202020202B
:101CA8002066696E616C697A6164612020207C001D
:101CB80031323A30302020202020204167722E20F7
:101CC80031303025002D202020427566666572204F
:101CD800656E76696F2020202D007C200058004119
:101CE800677265676172202020204261742E20315E
:101CF800303025007C313A3030207C20323A303088
:101D0800207C20333A30307C007C343A3030207CE0
:101D180020353A3030207C20363A30307C007C3711
:101D28003A3030207C20383A3030207C20393A3024
:101D3800307C005175697461722020202020426136
:101D4800742E20313030250053746F636B202020AF
:101D58002020204261742E2031303025007C202044
:101D6800202020456E7669616E646F202020202037
:101D78007C007C202020202056616369616E646F9E
:101D88002E2E2020207C007C20202056696E637532
:101D98006C616E646F2E2E20207C007C2020202019
:101DA8004D6F646966696361722E2E2020207C0065
:101DB8004F4B0A002020496E696369616C697A613A
:101DC8006E646F204C4344004154244100313A2052
:0E1DD80000323A2000333A20004154244200E9
:00000001FF
